{
  "_format": "hh-sol-artifact-1",
  "contractName": "ERC20",
  "sourceName": "contracts/ERC20.sol",
  "abi": [
    {
      "inputs": [
        {
          "internalType": "string",
          "name": "name_",
          "type": "string"
        },
        {
          "internalType": "string",
          "name": "symbol_",
          "type": "string"
        }
      ],
      "stateMutability": "nonpayable",
      "type": "constructor"
    },
    {
      "anonymous": false,
      "inputs": [
        {
          "indexed": true,
          "internalType": "address",
          "name": "_owner",
          "type": "address"
        },
        {
          "indexed": true,
          "internalType": "address",
          "name": "_spender",
          "type": "address"
        },
        {
          "indexed": false,
          "internalType": "uint256",
          "name": "_value",
          "type": "uint256"
        }
      ],
      "name": "Approval",
      "type": "event"
    },
    {
      "anonymous": false,
      "inputs": [
        {
          "indexed": true,
          "internalType": "address",
          "name": "_owner",
          "type": "address"
        },
        {
          "indexed": false,
          "internalType": "uint256",
          "name": "amount",
          "type": "uint256"
        }
      ],
      "name": "Burned",
      "type": "event"
    },
    {
      "anonymous": false,
      "inputs": [
        {
          "indexed": true,
          "internalType": "address",
          "name": "_from",
          "type": "address"
        },
        {
          "indexed": true,
          "internalType": "address",
          "name": "_to",
          "type": "address"
        },
        {
          "indexed": false,
          "internalType": "uint256",
          "name": "_value",
          "type": "uint256"
        }
      ],
      "name": "Transfer",
      "type": "event"
    },
    {
      "inputs": [
        {
          "internalType": "address",
          "name": "",
          "type": "address"
        },
        {
          "internalType": "address",
          "name": "",
          "type": "address"
        }
      ],
      "name": "_allowances",
      "outputs": [
        {
          "internalType": "uint256",
          "name": "",
          "type": "uint256"
        }
      ],
      "stateMutability": "view",
      "type": "function"
    },
    {
      "inputs": [
        {
          "internalType": "address",
          "name": "",
          "type": "address"
        }
      ],
      "name": "_balances",
      "outputs": [
        {
          "internalType": "uint256",
          "name": "",
          "type": "uint256"
        }
      ],
      "stateMutability": "view",
      "type": "function"
    },
    {
      "inputs": [],
      "name": "_decimals",
      "outputs": [
        {
          "internalType": "uint256",
          "name": "",
          "type": "uint256"
        }
      ],
      "stateMutability": "view",
      "type": "function"
    },
    {
      "inputs": [
        {
          "internalType": "address",
          "name": "account",
          "type": "address"
        },
        {
          "internalType": "uint256",
          "name": "amount",
          "type": "uint256"
        }
      ],
      "name": "_mint",
      "outputs": [
        {
          "internalType": "bool",
          "name": "",
          "type": "bool"
        }
      ],
      "stateMutability": "nonpayable",
      "type": "function"
    },
    {
      "inputs": [],
      "name": "_minter",
      "outputs": [
        {
          "internalType": "address",
          "name": "",
          "type": "address"
        }
      ],
      "stateMutability": "view",
      "type": "function"
    },
    {
      "inputs": [],
      "name": "_name",
      "outputs": [
        {
          "internalType": "string",
          "name": "",
          "type": "string"
        }
      ],
      "stateMutability": "view",
      "type": "function"
    },
    {
      "inputs": [],
      "name": "_symbol",
      "outputs": [
        {
          "internalType": "string",
          "name": "",
          "type": "string"
        }
      ],
      "stateMutability": "view",
      "type": "function"
    },
    {
      "inputs": [],
      "name": "_totalSupply",
      "outputs": [
        {
          "internalType": "uint256",
          "name": "",
          "type": "uint256"
        }
      ],
      "stateMutability": "view",
      "type": "function"
    },
    {
      "inputs": [
        {
          "internalType": "address",
          "name": "_owner",
          "type": "address"
        },
        {
          "internalType": "address",
          "name": "_spender",
          "type": "address"
        }
      ],
      "name": "allowance",
      "outputs": [
        {
          "internalType": "uint256",
          "name": "",
          "type": "uint256"
        }
      ],
      "stateMutability": "view",
      "type": "function"
    },
    {
      "inputs": [
        {
          "internalType": "address",
          "name": "account",
          "type": "address"
        }
      ],
      "name": "balanceOf",
      "outputs": [
        {
          "internalType": "uint256",
          "name": "",
          "type": "uint256"
        }
      ],
      "stateMutability": "view",
      "type": "function"
    },
    {
      "inputs": [
        {
          "internalType": "uint256",
          "name": "amount",
          "type": "uint256"
        }
      ],
      "name": "burn",
      "outputs": [
        {
          "internalType": "bool",
          "name": "",
          "type": "bool"
        }
      ],
      "stateMutability": "nonpayable",
      "type": "function"
    },
    {
      "inputs": [],
      "name": "decimals",
      "outputs": [
        {
          "internalType": "uint256",
          "name": "",
          "type": "uint256"
        }
      ],
      "stateMutability": "view",
      "type": "function"
    },
    {
      "inputs": [
        {
          "internalType": "address",
          "name": "spender",
          "type": "address"
        },
        {
          "internalType": "uint256",
          "name": "subtractedValue",
          "type": "uint256"
        }
      ],
      "name": "decreaseAllowance",
      "outputs": [
        {
          "internalType": "bool",
          "name": "",
          "type": "bool"
        }
      ],
      "stateMutability": "nonpayable",
      "type": "function"
    },
    {
      "inputs": [
        {
          "internalType": "address",
          "name": "spender",
          "type": "address"
        },
        {
          "internalType": "uint256",
          "name": "_addedValue",
          "type": "uint256"
        }
      ],
      "name": "increaseAllowance",
      "outputs": [
        {
          "internalType": "bool",
          "name": "",
          "type": "bool"
        }
      ],
      "stateMutability": "nonpayable",
      "type": "function"
    },
    {
      "inputs": [],
      "name": "name",
      "outputs": [
        {
          "internalType": "string",
          "name": "",
          "type": "string"
        }
      ],
      "stateMutability": "view",
      "type": "function"
    },
    {
      "inputs": [],
      "name": "symbol",
      "outputs": [
        {
          "internalType": "string",
          "name": "",
          "type": "string"
        }
      ],
      "stateMutability": "view",
      "type": "function"
    },
    {
      "inputs": [],
      "name": "totalSupply",
      "outputs": [
        {
          "internalType": "uint256",
          "name": "",
          "type": "uint256"
        }
      ],
      "stateMutability": "view",
      "type": "function"
    },
    {
      "inputs": [
        {
          "internalType": "address",
          "name": "_to",
          "type": "address"
        },
        {
          "internalType": "uint256",
          "name": "_value",
          "type": "uint256"
        }
      ],
      "name": "transfer",
      "outputs": [
        {
          "internalType": "bool",
          "name": "",
          "type": "bool"
        }
      ],
      "stateMutability": "nonpayable",
      "type": "function"
    },
    {
      "inputs": [
        {
          "internalType": "address",
          "name": "_from",
          "type": "address"
        },
        {
          "internalType": "address",
          "name": "_to",
          "type": "address"
        },
        {
          "internalType": "uint256",
          "name": "_value",
          "type": "uint256"
        }
      ],
      "name": "transferFrom",
      "outputs": [
        {
          "internalType": "bool",
          "name": "",
          "type": "bool"
        }
      ],
      "stateMutability": "nonpayable",
      "type": "function"
    }
  ],
  "bytecode": "0x608060405260126003553480156200001657600080fd5b5060405162001baa38038062001baa83398181016040528101906200003c9190620002d6565b816000908051906020019062000054929190620001b4565b5080600190805190602001906200006d929190620001b4565b5061271060028190555033600460006101000a81548173ffffffffffffffffffffffffffffffffffffffff021916908373ffffffffffffffffffffffffffffffffffffffff16021790555060025460056000600460009054906101000a900473ffffffffffffffffffffffffffffffffffffffff1673ffffffffffffffffffffffffffffffffffffffff1673ffffffffffffffffffffffffffffffffffffffff16815260200190815260200160002081905550600460009054906101000a900473ffffffffffffffffffffffffffffffffffffffff1673ffffffffffffffffffffffffffffffffffffffff16600073ffffffffffffffffffffffffffffffffffffffff167fddf252ad1be2c89b69c2b068fc378daa952ba7f163c4a11628f55a4df523b3ef600254604051620001a491906200035a565b60405180910390a35050620004f1565b828054620001c29062000416565b90600052602060002090601f016020900481019282620001e6576000855562000232565b82601f106200020157805160ff191683800117855562000232565b8280016001018555821562000232579182015b828111156200023157825182559160200191906001019062000214565b5b50905062000241919062000245565b5090565b5b808211156200026057600081600090555060010162000246565b5090565b60006200027b6200027584620003a0565b62000377565b9050828152602081018484840111156200029457600080fd5b620002a1848285620003e0565b509392505050565b600082601f830112620002bb57600080fd5b8151620002cd84826020860162000264565b91505092915050565b60008060408385031215620002ea57600080fd5b600083015167ffffffffffffffff8111156200030557600080fd5b6200031385828601620002a9565b925050602083015167ffffffffffffffff8111156200033157600080fd5b6200033f85828601620002a9565b9150509250929050565b6200035481620003d6565b82525050565b600060208201905062000371600083018462000349565b92915050565b60006200038362000396565b90506200039182826200044c565b919050565b6000604051905090565b600067ffffffffffffffff821115620003be57620003bd620004b1565b5b620003c982620004e0565b9050602081019050919050565b6000819050919050565b60005b8381101562000400578082015181840152602081019050620003e3565b8381111562000410576000848401525b50505050565b600060028204905060018216806200042f57607f821691505b6020821081141562000446576200044562000482565b5b50919050565b6200045782620004e0565b810181811067ffffffffffffffff82111715620004795762000478620004b1565b5b80604052505050565b7f4e487b7100000000000000000000000000000000000000000000000000000000600052602260045260246000fd5b7f4e487b7100000000000000000000000000000000000000000000000000000000600052604160045260246000fd5b6000601f19601f8301169050919050565b6116a980620005016000396000f3fe608060405234801561001057600080fd5b50600436106101215760003560e01c80634e6ec247116100ad578063a457c2d711610071578063a457c2d714610348578063a9059cbb14610378578063b09f1266146103a8578063d28d8852146103c6578063dd62ed3e146103e457610121565b80634e6ec2471461027c578063578ec33f146102ac5780636ebcf607146102ca57806370a08231146102fa57806395d89b411461032a57610121565b8063313ce567116100f4578063313ce567146101c257806332424aa3146101e057806339509351146101fe5780633eaaf86b1461022e57806342966c681461024c57610121565b8063024c2ddd1461012657806306fdde031461015657806318160ddd1461017457806323b872dd14610192575b600080fd5b610140600480360381019061013b9190611098565b610414565b60405161014d9190611352565b60405180910390f35b61015e610439565b60405161016b91906112b0565b60405180910390f35b61017c6104cb565b6040516101899190611352565b60405180910390f35b6101ac60048036038101906101a791906110d4565b6104d5565b6040516101b99190611295565b60405180910390f35b6101ca61075a565b6040516101d79190611352565b60405180910390f35b6101e8610764565b6040516101f59190611352565b60405180910390f35b61021860048036038101906102139190611123565b61076a565b6040516102259190611295565b60405180910390f35b610236610808565b6040516102439190611352565b60405180910390f35b6102666004803603810190610261919061115f565b61080e565b6040516102739190611295565b60405180910390f35b61029660048036038101906102919190611123565b610915565b6040516102a39190611295565b60405180910390f35b6102b4610ac0565b6040516102c1919061127a565b60405180910390f35b6102e460048036038101906102df919061106f565b610ae6565b6040516102f19190611352565b60405180910390f35b610314600480360381019061030f919061106f565b610afe565b6040516103219190611352565b60405180910390f35b610332610b47565b60405161033f91906112b0565b60405180910390f35b610362600480360381019061035d9190611123565b610bd9565b60405161036f9190611295565b60405180910390f35b610392600480360381019061038d9190611123565b610cbf565b60405161039f9190611295565b60405180910390f35b6103b0610cd7565b6040516103bd91906112b0565b60405180910390f35b6103ce610d65565b6040516103db91906112b0565b60405180910390f35b6103fe60048036038101906103f99190611098565b610df3565b60405161040b9190611352565b60405180910390f35b6006602052816000526040600020602052806000526040600020600091509150505481565b6060600080546104489061148e565b80601f01602080910402602001604051908101604052809291908181526020018280546104749061148e565b80156104c15780601f10610496576101008083540402835291602001916104c1565b820191906000526020600020905b8154815290600101906020018083116104a457829003601f168201915b5050505050905090565b6000600254905090565b600081600560008673ffffffffffffffffffffffffffffffffffffffff1673ffffffffffffffffffffffffffffffffffffffff168152602001908152602001600020541161052257600080fd5b81600660008673ffffffffffffffffffffffffffffffffffffffff1673ffffffffffffffffffffffffffffffffffffffff16815260200190815260200160002060008573ffffffffffffffffffffffffffffffffffffffff1673ffffffffffffffffffffffffffffffffffffffff1681526020019081526020016000205410156105ab57600080fd5b81600660008673ffffffffffffffffffffffffffffffffffffffff1673ffffffffffffffffffffffffffffffffffffffff16815260200190815260200160002060008573ffffffffffffffffffffffffffffffffffffffff1673ffffffffffffffffffffffffffffffffffffffff168152602001908152602001600020600082825461063791906113df565b9250508190555081600560008673ffffffffffffffffffffffffffffffffffffffff1673ffffffffffffffffffffffffffffffffffffffff168152602001908152602001600020600082825461068d91906113df565b9250508190555081600560008573ffffffffffffffffffffffffffffffffffffffff1673ffffffffffffffffffffffffffffffffffffffff16815260200190815260200160002060008282546106e39190611389565b925050819055508273ffffffffffffffffffffffffffffffffffffffff168473ffffffffffffffffffffffffffffffffffffffff167fddf252ad1be2c89b69c2b068fc378daa952ba7f163c4a11628f55a4df523b3ef846040516107479190611352565b60405180910390a3600190509392505050565b6000600354905090565b60035481565b60006107fe338484600660003373ffffffffffffffffffffffffffffffffffffffff1673ffffffffffffffffffffffffffffffffffffffff16815260200190815260200160002060008873ffffffffffffffffffffffffffffffffffffffff1673ffffffffffffffffffffffffffffffffffffffff168152602001908152602001600020546107f99190611389565b610e7a565b6001905092915050565b60025481565b600081600560003373ffffffffffffffffffffffffffffffffffffffff1673ffffffffffffffffffffffffffffffffffffffff16815260200190815260200160002054101561085c57600080fd5b610867600083610cbf565b5081600560003373ffffffffffffffffffffffffffffffffffffffff1673ffffffffffffffffffffffffffffffffffffffff16815260200190815260200160002060008282546108b791906113df565b925050819055503373ffffffffffffffffffffffffffffffffffffffff167f696de425f79f4a40bc6d2122ca50507f0efbeabbff86a84871b7196ab8ea8df7836040516109049190611352565b60405180910390a260019050919050565b6000600460009054906101000a900473ffffffffffffffffffffffffffffffffffffffff1673ffffffffffffffffffffffffffffffffffffffff163373ffffffffffffffffffffffffffffffffffffffff161461097157600080fd5b600073ffffffffffffffffffffffffffffffffffffffff168373ffffffffffffffffffffffffffffffffffffffff1614156109e1576040517f08c379a00000000000000000000000000000000000000000000000000000000081526004016109d890611332565b60405180910390fd5b81600560008573ffffffffffffffffffffffffffffffffffffffff1673ffffffffffffffffffffffffffffffffffffffff1681526020019081526020016000206000828254610a309190611389565b925050819055508160026000828254610a499190611389565b925050819055508273ffffffffffffffffffffffffffffffffffffffff16600073ffffffffffffffffffffffffffffffffffffffff167fddf252ad1be2c89b69c2b068fc378daa952ba7f163c4a11628f55a4df523b3ef84604051610aae9190611352565b60405180910390a36001905092915050565b600460009054906101000a900473ffffffffffffffffffffffffffffffffffffffff1681565b60056020528060005260406000206000915090505481565b6000600560008373ffffffffffffffffffffffffffffffffffffffff1673ffffffffffffffffffffffffffffffffffffffff168152602001908152602001600020549050919050565b606060018054610b569061148e565b80601f0160208091040260200160405190810160405280929190818152602001828054610b829061148e565b8015610bcf5780601f10610ba457610100808354040283529160200191610bcf565b820191906000526020600020905b815481529060010190602001808311610bb257829003601f168201915b5050505050905090565b600080600660003373ffffffffffffffffffffffffffffffffffffffff1673ffffffffffffffffffffffffffffffffffffffff16815260200190815260200160002060008573ffffffffffffffffffffffffffffffffffffffff1673ffffffffffffffffffffffffffffffffffffffff16815260200190815260200160002054905082811015610c9e576040517f08c379a0000000000000000000000000000000000000000000000000000000008152600401610c9590611312565b60405180910390fd5b610cb433858584610caf91906113df565b610e7a565b600191505092915050565b6000610ccc3384846104d5565b506001905092915050565b60018054610ce49061148e565b80601f0160208091040260200160405190810160405280929190818152602001828054610d109061148e565b8015610d5d5780601f10610d3257610100808354040283529160200191610d5d565b820191906000526020600020905b815481529060010190602001808311610d4057829003601f168201915b505050505081565b60008054610d729061148e565b80601f0160208091040260200160405190810160405280929190818152602001828054610d9e9061148e565b8015610deb5780601f10610dc057610100808354040283529160200191610deb565b820191906000526020600020905b815481529060010190602001808311610dce57829003601f168201915b505050505081565b6000600660008473ffffffffffffffffffffffffffffffffffffffff1673ffffffffffffffffffffffffffffffffffffffff16815260200190815260200160002060008373ffffffffffffffffffffffffffffffffffffffff1673ffffffffffffffffffffffffffffffffffffffff16815260200190815260200160002054905092915050565b600073ffffffffffffffffffffffffffffffffffffffff168373ffffffffffffffffffffffffffffffffffffffff161415610eea576040517f08c379a0000000000000000000000000000000000000000000000000000000008152600401610ee1906112f2565b60405180910390fd5b600073ffffffffffffffffffffffffffffffffffffffff168273ffffffffffffffffffffffffffffffffffffffff161415610f5a576040517f08c379a0000000000000000000000000000000000000000000000000000000008152600401610f51906112d2565b60405180910390fd5b80600660008573ffffffffffffffffffffffffffffffffffffffff1673ffffffffffffffffffffffffffffffffffffffff16815260200190815260200160002060008473ffffffffffffffffffffffffffffffffffffffff1673ffffffffffffffffffffffffffffffffffffffff168152602001908152602001600020819055508173ffffffffffffffffffffffffffffffffffffffff168373ffffffffffffffffffffffffffffffffffffffff167f8c5be1e5ebec7d5bd14f71427d1e84f3dd0314c0f7b2291e5b200ac8c7c3b925836040516110389190611352565b60405180910390a3505050565b60008135905061105481611645565b92915050565b6000813590506110698161165c565b92915050565b60006020828403121561108157600080fd5b600061108f84828501611045565b91505092915050565b600080604083850312156110ab57600080fd5b60006110b985828601611045565b92505060206110ca85828601611045565b9150509250929050565b6000806000606084860312156110e957600080fd5b60006110f786828701611045565b935050602061110886828701611045565b92505060406111198682870161105a565b9150509250925092565b6000806040838503121561113657600080fd5b600061114485828601611045565b92505060206111558582860161105a565b9150509250929050565b60006020828403121561117157600080fd5b600061117f8482850161105a565b91505092915050565b61119181611413565b82525050565b6111a081611425565b82525050565b60006111b18261136d565b6111bb8185611378565b93506111cb81856020860161145b565b6111d48161151e565b840191505092915050565b60006111ec602283611378565b91506111f78261152f565b604082019050919050565b600061120f602483611378565b915061121a8261157e565b604082019050919050565b6000611232602583611378565b915061123d826115cd565b604082019050919050565b6000611255601f83611378565b91506112608261161c565b602082019050919050565b61127481611451565b82525050565b600060208201905061128f6000830184611188565b92915050565b60006020820190506112aa6000830184611197565b92915050565b600060208201905081810360008301526112ca81846111a6565b905092915050565b600060208201905081810360008301526112eb816111df565b9050919050565b6000602082019050818103600083015261130b81611202565b9050919050565b6000602082019050818103600083015261132b81611225565b9050919050565b6000602082019050818103600083015261134b81611248565b9050919050565b6000602082019050611367600083018461126b565b92915050565b600081519050919050565b600082825260208201905092915050565b600061139482611451565b915061139f83611451565b9250827fffffffffffffffffffffffffffffffffffffffffffffffffffffffffffffffff038211156113d4576113d36114c0565b5b828201905092915050565b60006113ea82611451565b91506113f583611451565b925082821015611408576114076114c0565b5b828203905092915050565b600061141e82611431565b9050919050565b60008115159050919050565b600073ffffffffffffffffffffffffffffffffffffffff82169050919050565b6000819050919050565b60005b8381101561147957808201518184015260208101905061145e565b83811115611488576000848401525b50505050565b600060028204905060018216806114a657607f821691505b602082108114156114ba576114b96114ef565b5b50919050565b7f4e487b7100000000000000000000000000000000000000000000000000000000600052601160045260246000fd5b7f4e487b7100000000000000000000000000000000000000000000000000000000600052602260045260246000fd5b6000601f19601f8301169050919050565b7f45524332303a20617070726f766520746f20746865207a65726f20616464726560008201527f7373000000000000000000000000000000000000000000000000000000000000602082015250565b7f45524332303a20617070726f76652066726f6d20746865207a65726f2061646460008201527f7265737300000000000000000000000000000000000000000000000000000000602082015250565b7f45524332303a2064656372656173656420616c6c6f77616e63652062656c6f7760008201527f207a65726f000000000000000000000000000000000000000000000000000000602082015250565b7f45524332303a206d696e7420746f20746865207a65726f206164647265737300600082015250565b61164e81611413565b811461165957600080fd5b50565b61166581611451565b811461167057600080fd5b5056fea2646970667358221220c7c1e357a6b40862e803a537c32a80d82a5764af04f4b89633601743e5c5679f64736f6c63430008040033",
  "linkReferences": {},
  "deployedLinkReferences": {}
}