{
  "_format": "hh-sol-artifact-1",
  "contractName": "Charity",
  "sourceName": "contracts/Charity.sol",
  "abi": [
    {
      "inputs": [],
      "stateMutability": "payable",
      "type": "constructor"
    },
    {
      "inputs": [],
      "name": "contractOwner",
      "outputs": [
        {
          "internalType": "address payable",
          "name": "",
          "type": "address"
        }
      ],
      "stateMutability": "view",
      "type": "function"
    },
    {
      "inputs": [
        {
          "internalType": "address",
          "name": "",
          "type": "address"
        }
      ],
      "name": "donatorAmounts",
      "outputs": [
        {
          "internalType": "uint256",
          "name": "",
          "type": "uint256"
        }
      ],
      "stateMutability": "view",
      "type": "function"
    },
    {
      "inputs": [
        {
          "internalType": "address",
          "name": "",
          "type": "address"
        }
      ],
      "name": "donatorIDs",
      "outputs": [
        {
          "internalType": "uint256",
          "name": "",
          "type": "uint256"
        }
      ],
      "stateMutability": "view",
      "type": "function"
    },
    {
      "inputs": [
        {
          "internalType": "uint256",
          "name": "",
          "type": "uint256"
        }
      ],
      "name": "donators",
      "outputs": [
        {
          "internalType": "address",
          "name": "",
          "type": "address"
        }
      ],
      "stateMutability": "view",
      "type": "function"
    },
    {
      "inputs": [],
      "name": "getBalance",
      "outputs": [
        {
          "internalType": "uint256",
          "name": "",
          "type": "uint256"
        }
      ],
      "stateMutability": "view",
      "type": "function"
    },
    {
      "inputs": [],
      "name": "receiveDonation",
      "outputs": [],
      "stateMutability": "payable",
      "type": "function"
    },
    {
      "inputs": [
        {
          "internalType": "address payable",
          "name": "beneficiary",
          "type": "address"
        },
        {
          "internalType": "uint256",
          "name": "amount",
          "type": "uint256"
        }
      ],
      "name": "transferToBeneficiary",
      "outputs": [],
      "stateMutability": "nonpayable",
      "type": "function"
    }
  ],
  "bytecode": "0x60806040526001600455336000806101000a81548173ffffffffffffffffffffffffffffffffffffffff021916908373ffffffffffffffffffffffffffffffffffffffff160217905550610a9c806100586000396000f3fe6080604052600436106100705760003560e01c806389d9faf71161004e57806389d9faf7146100e7578063ac62f56614610124578063ce606ee014610161578063f698332e1461018c57610070565b806312065fe01461007557806345d3292b146100a05780637e850d1a146100aa575b600080fd5b34801561008157600080fd5b5061008a6101b5565b6040516100979190610838565b60405180910390f35b6100a86101bd565b005b3480156100b657600080fd5b506100d160048036038101906100cc9190610666565b6103b7565b6040516100de9190610838565b60405180910390f35b3480156100f357600080fd5b5061010e60048036038101906101099190610666565b6103cf565b60405161011b9190610838565b60405180910390f35b34801561013057600080fd5b5061014b600480360381019061014691906106cb565b6103e7565b60405161015891906107a0565b60405180910390f35b34801561016d57600080fd5b50610176610426565b60405161018391906107bb565b60405180910390f35b34801561019857600080fd5b506101b360048036038101906101ae919061068f565b61044a565b005b600047905090565b6000600360003373ffffffffffffffffffffffffffffffffffffffff1673ffffffffffffffffffffffffffffffffffffffff168152602001908152602001600020541461025f5734600260003373ffffffffffffffffffffffffffffffffffffffff1673ffffffffffffffffffffffffffffffffffffffff1681526020019081526020016000206000828254610253919061086f565b92505081905550610377565b600454600360003373ffffffffffffffffffffffffffffffffffffffff1673ffffffffffffffffffffffffffffffffffffffff168152602001908152602001600020819055506001339080600181540180825580915050600190039060005260206000200160009091909190916101000a81548173ffffffffffffffffffffffffffffffffffffffff021916908373ffffffffffffffffffffffffffffffffffffffff16021790555034600260003373ffffffffffffffffffffffffffffffffffffffff1673ffffffffffffffffffffffffffffffffffffffff1681526020019081526020016000206000828254610357919061086f565b925050819055506004600081548092919061037190610946565b91905055505b6103b56040518060400160405280601381526020017f5265636569766564206120646f6e6174696f6e00000000000000000000000000815250610565565b565b60026020528060005260406000206000915090505481565b60036020528060005260406000206000915090505481565b600181815481106103f757600080fd5b906000526020600020016000915054906101000a900473ffffffffffffffffffffffffffffffffffffffff1681565b60008054906101000a900473ffffffffffffffffffffffffffffffffffffffff1681565b60008054906101000a900473ffffffffffffffffffffffffffffffffffffffff1673ffffffffffffffffffffffffffffffffffffffff163373ffffffffffffffffffffffffffffffffffffffff16146104d8576040517f08c379a00000000000000000000000000000000000000000000000000000000081526004016104cf90610818565b60405180910390fd5b47811061051a576040517f08c379a0000000000000000000000000000000000000000000000000000000008152600401610511906107f8565b60405180910390fd5b8173ffffffffffffffffffffffffffffffffffffffff166108fc829081150290604051600060405180830381858888f19350505050158015610560573d6000803e3d6000fd5b505050565b6105fb8160405160240161057991906107d6565b6040516020818303038152906040527f41304fac000000000000000000000000000000000000000000000000000000007bffffffffffffffffffffffffffffffffffffffffffffffffffffffff19166020820180517bffffffffffffffffffffffffffffffffffffffffffffffffffffffff83818316178352505050506105fe565b50565b60008151905060006a636f6e736f6c652e6c6f679050602083016000808483855afa5050505050565b60008135905061063681610a21565b92915050565b60008135905061064b81610a38565b92915050565b60008135905061066081610a4f565b92915050565b60006020828403121561067857600080fd5b600061068684828501610627565b91505092915050565b600080604083850312156106a257600080fd5b60006106b08582860161063c565b92505060206106c185828601610651565b9150509250929050565b6000602082840312156106dd57600080fd5b60006106eb84828501610651565b91505092915050565b6106fd816108d7565b82525050565b61070c816108c5565b82525050565b600061071d82610853565b610727818561085e565b9350610737818560208601610913565b610740816109be565b840191505092915050565b600061075860128361085e565b9150610763826109cf565b602082019050919050565b600061077b601e8361085e565b9150610786826109f8565b602082019050919050565b61079a81610909565b82525050565b60006020820190506107b56000830184610703565b92915050565b60006020820190506107d060008301846106f4565b92915050565b600060208201905081810360008301526107f08184610712565b905092915050565b600060208201905081810360008301526108118161074b565b9050919050565b600060208201905081810360008301526108318161076e565b9050919050565b600060208201905061084d6000830184610791565b92915050565b600081519050919050565b600082825260208201905092915050565b600061087a82610909565b915061088583610909565b9250827fffffffffffffffffffffffffffffffffffffffffffffffffffffffffffffffff038211156108ba576108b961098f565b5b828201905092915050565b60006108d0826108e9565b9050919050565b60006108e2826108e9565b9050919050565b600073ffffffffffffffffffffffffffffffffffffffff82169050919050565b6000819050919050565b60005b83811015610931578082015181840152602081019050610916565b83811115610940576000848401525b50505050565b600061095182610909565b91507fffffffffffffffffffffffffffffffffffffffffffffffffffffffffffffffff8214156109845761098361098f565b5b600182019050919050565b7f4e487b7100000000000000000000000000000000000000000000000000000000600052601160045260246000fd5b6000601f19601f8301169050919050565b7f4e6f7420656e6f7567682062616c616e63650000000000000000000000000000600082015250565b7f416374696f6e2072657372696374656420746f206f776e6572206f6e6c790000600082015250565b610a2a816108c5565b8114610a3557600080fd5b50565b610a41816108d7565b8114610a4c57600080fd5b50565b610a5881610909565b8114610a6357600080fd5b5056fea2646970667358221220d9f10cbfd342a4435b4c61cd1737ad1a69a0683dae189f85c069a88a2abcd17a64736f6c63430008040033",
  "linkReferences": {},
  "deployedLinkReferences": {}
}